:10000E002057656C636F6D6520746F207573652066
:10001E000020536F6E67206E756D6265723A3030D8
:10002E002000050201030201020202020204030281
:10003E000101020102020103020405020103020191
:10004E00020202020202050101030201040201037F
:10005E00020403020103020107020103020102026C
:10006E000201020107010101020102020103020164
:10007E00060203060101010201030201020201064A
:10008E000101010201070101050101060106050238
:10009E000103020102020202020102020103020135
:1000AE000102010202010302040502010302010220
:1000BE000202020201020201050101030201040211
:1000CE0001030204030201030201070203030201FA
:1000DE0002020201020107010101020102020103F3
:1000EE0002010602030601010102010302010202DE
:1000FE0001060101010201070102050102060106C6
:10010E0000000005010102020103020202020103C6
:10011E0002010502010602010502030102010202AB
:10012E000103020106020105020103020105020399
:10013E000502010602010103020602010502010386
:10014E000201050201030202010201020201030281
:10015E000101020106010103020102020105010172
:10016E00020201030202020201030201050201065C
:10017E00020105020301020102020103020106024D
:10018E000105020305020106020101030206020136
:10019E00050201030201050201030202010201062A
:1001AE000101030201020201010201060101010225
:1001BE000102020102020101020400000005010118
:1001CE000102010202010302010202010302010403
:1001DE0002010502010502010502010402010302EA
:1001EE0001020203050101010201020201030201E3
:1001FE0004020105020105020105020106020105C4
:10020E0002020202010302010102020102010601C1
:10021E0001020201020201030201030201010201B5
:10022E00050201010201050201010201070101019E
:10023E000201010201060101020201020201030292
:10024E000103020105020105020105020106020178
:10025E00050202020201030201010202050101016F
:10026E000201020102030201020201030201040261
:10027E00010502010502010502010402010302014A
:10028E000202030501010102010202010302010241
:10029E000201030201040201050201050201050229
:1002AE000202020103020101020201020106010122
:1002BE000202010202010302010302010102020510
:1002CE0002010102010502010502010701010102FD
:1002DE0001000000060203050201030202050202EC
:1002EE0001030206020105020106020403020205D1
:1002FE0002010602010502020302020102010601C9
:10030E0001050201030201020204020203030201BB
:10031E0005020205020106020103020202020201A7
:10032E000204050203030201020201010201060199
:10033E000101020105010600000003020203020191
:10034E00040201030202020201010201020202057D
:10035E000202020202020203010202010201020271
:10036E000101020207010106010107010203020257
:10037E000701020701030601020202010302010244
:10038E00020101020106010205010202020103023D
:10039E00010202010102010601020601020202012E
:1003AE00030201020201010201060101070101011E
:1003BE000206000000030102030101030101060011
:1003CE0001060001010102060001050001060004FC
:1003DE0006000206000106000106000206000101E9
:1003EE0001010201020201010301010201040301E4
:1003FE0001030101030101020101040102040102D2
:10040E0003010202010101010102010407000107BB
:10041E0000010700010600010500010500010600AC
:10042E000107000107000106000105000106000496
:10043E000601020301010601010701010601010582
:10044E00010105010205010102010105010106017B
:10045E00010501010401010401020401010301016E
:10046E000201020101010201010301010201010168
:10047E00010102010103010406010203010106014B
:10048E000107010106010105010105010202010139
:10049E00050101060101050101040101000000052D
:1004AE00010203010305010101020306010201021B
:1004BE00020501040501020101010201010301020D
:1004CE0002010101010102010405010203010105FE
:1004DE0001010102020701010601020102020501EA
:1004EE0004050102020101030101040102070001DA
:1004FE0001010406010201020201020407010206C3
:10050E0001010701010102040601010701010102B7
:10051E0001060101060101050101030101010101AD
:10052E000201080501020301010501010102020792
:10053E000101060102010202050104050102020188
:10054E000103010104010207000201010400000081
:10055E000501010601010102010601020601010564
:10056E000101060101050101030101050105050156
:10057E000106010101020106010206010105010148
:10058E00060101050101060101010105010101023A
:10059E000101030101020101020101020101010138
:1005AE000102010101010106010103010202010321
:1005BE000501010601010102010601020601010504
:1005CE0001010601010501010601010101050101FB
:1005DE0001020101030101040102040101050101EF
:1005EE0006010106010105010106010201020106D3
:1005FE0001030102010601010501010501040101CA
:10060E0001060101050105050101060101010201B5
:10061E00030101020101030101010106000000F2C4
:10062E00F3F5F5F6F7F8F9F9FAFAFBFBFCFCFCFD2D
:10063E00FDFDFDFEFEFEFEFEFEFEFF42C117B6D024
:10064E00D1B621E18CD868E95B8FEE446BB4F42D02
:07065E004777A2B6DAFA1695
:030C4A00010D0099
:0F0B76008F807F057E00120B85D2A77F057E0042
:100B8500D3EF9400EE940040147D6E7C00ED1D7053
:0D0B9500011CED4C70F7EF1F70E61E80E3B1
:010BA2002230
:08000300C2A6120B76C2A7226F
:080C4200D2A6120B76C2A72214
:100C13007F381200037F0C1200037F061200037F4C
:090C2300011200037F80020003AE
:100BF100ED75F00A84FBED75F00A84AAF0EF24C0CC
:100C0100FF120003EB2430FF120C42EA2430FF02F2
:020C11000C4293
:060B3E008B0F8A108911E3
:100B4400EFBD01062480F512800424C0F512AF1213
:100B5400120003AB0FAA10A911120BA36013051105
:100B6400E5117002051014F9120BA3FF120C428058
:010B7400E29E
:010B7500225D
:1009B600120C13758911D2A9D2AF7BFF7A00790E7A
:1009C6007D01E4FF120B3E7BFF7A00791F7D02E476
:1009D600FF120B3E120665AD0E7F0D120BF120B312
:1009E6001F120BCD20B319E50E7009750E01F50D1A
:1009F600D2008004B200D2A020B3052000FA80F80D
:100A060020B22EE50E602A120BCD20B224E50E6030
:100A160020D2A0150EE50ED394005003750E08E4FF
:100A2600F50DE50EB40603750E017FF47E01120B7B
:100A3600D120B4A0E50E609C120BCD20B496E50E35
:100A46006092D2A0050EE50EC394094003750E010F
:100A5600E4F50DE50E7003750E057FF47E01120BAD
:040A6600D10209DAD6
:040BCD007F057E0022
:100BD100E4FDFCC3ED9FEC9E5015E4FBFA0BBB005A
:0F0BE100010AEB647B4A70F50DBD00010C80E446
:010BF00022E2
:020AF6008F0F60
:100AF800E4F510E510C3950F5039E4F514F513F536
:100B080012F511E47F407E1FFDFCAB14AA13A91255
:100B1800A811C3120BBC5017E5142401F514E435D1
:100B280013F513E43512F512E43511F51180D405E7
:050B38001080C0C28C1A
:010B3D002295
:03000B00020C39AB
:090C3900B2A085098C850C8A32F9
:0D0C2C0085098C850C8AD28CAF08020AF66F
:10066500E50E64017064300061E50D90003193750D
:10067500F007A4FFE50D900030937C002FFFEC35CB
:10068500F0CF24FFF50BEF34FFF50AFE742D250B93
:10069500F58274063EF583E493F5097449250BF557
:1006A5008274063EF583E493F50CE50D90003293D4
:1006B500F5087403250DF50DC3E50A648094805093
:1006C50006E4F50D750E02120C2CE50E640270643D
:1006D500300061E50D9001129375F007A4FFE50D5B
:1006E500900111937C002FFFEC35F0CF24FFF50B23
:1006F500EF34FFF50AFE742D250BF58274063EF5E1
:1007050083E493F5097449250BF58274063EF58358
:10071500E493F50CE50D90011393F5087403250D8D
:10072500F50DC3E50A648094805006E4F50D750E59
:1007350003120C2CE50E64037064300061E50D9026
:1007450001CC9375F007A4FFE50D9001CB937C00D8
:100755002FFFEC35F0CF24FFF50BEF34FFF50AFE44
:10076500742D250BF58274063EF583E493F5097423
:1007750049250BF58274063EF583E493F50CE50DEA
:100785009001CD93F5087403250DF50DC3E50A64B5
:100795008094805006E4F50D750E04120C2CE50EC0
:1007A50064047064300061E50D9002E39375F00711
:1007B500A4FFE50D9002E2937C002FFFEC35F0CF0E
:1007C50024FFF50BEF34FFF50AFE742D250BF5829A
:1007D50074063EF583E493F5097449250BF5827497
:1007E500063EF583E493F50CE50D9002E493F508D8
:1007F5007403250DF50DC3E50A648094805006E465
:10080500F50D750E05120C2CE50E640570643000AF
:1008150061E50D9003499375F007A4FFE50D90037D
:1008250048937C002FFFEC35F0CF24FFF50BEF3418
:10083500FFF50AFE742D250BF58274063EF583E45B
:1008450093F5097449250BF58274063EF583E49307
:10085500F50CE50D90034A93F5087403250DF50D88
:10086500C3E50A648094805006E4F50D750E061202
:100875000C2CE50E64067064300061E50D9003C430
:100885009375F007A4FFE50D9003C3937C002FFF3C
:10089500EC35F0CF24FFF50BEF34FFF50AFE742D90
:1008A500250BF58274063EF583E493F50974492515
:1008B5000BF58274063EF583E493F50CE50D900384
:1008C500C593F5087403250DF50DC3E50A648094F9
:1008D500805006E4F50D750E07120C2CE50E640725
:1008E5007064300061E50D9004AE9375F007A4FFC8
:1008F500E50D9004AD937C002FFFEC35F0CF24FF80
:10090500F50BEF34FFF50AFE742D250BF582740601
:100915003EF583E493F5097449250BF58274063E8B
:10092500F583E493F50CE50D9004AF93F508740396
:10093500250DF50DC3E50A648094805006E4F50D98
:10094500750E08120C2CE50E64087064300061E524
:100955000D90055F9375F007A4FFE50D90055E9377
:100965007C002FFFEC35F0CF24FFF50BEF34FFF5BE
:100975000AFE742D250BF58274063EF583E493F586
:10098500097449250BF58274063EF583E493F50C4D
:10099500E50D90056093F5087403250DF50DC3E588
:1009A5000A648094805006E4F50D750E01120C2C36
:0109B500221F
:03000000020A6A87
:0C0A6A00787FE4F6D8FD758120020AB107
:100BA300BB010689828A83E0225002E722BBFE0250
:090BB300E32289828A83E4932283
:100BBC00EB9FF5F0EA9E42F0E99D42F0E89C45F08F
:010BCC002206
:100A76000209B6E493A3F8E493A34003F68001F2D7
:100A860008DFF48029E493A3F85407240CC8C33381
:100A9600C4540F4420C8834004F456800146F6DF50
:100AA600E4800B0102040810204080900C4AE47E8A
:100AB600019360BCA3FF543F30E509541FFEE49345
:100AC600A360010ECF54C025E060A840B8E493A30C
:100AD600FAE493A3F8E493A3C8C582C8CAC583CA37
:100AE600F0A3C8C582C8CAC583CADFE9DEE780BEEF
:010C4D0000A6
:00000001FF
