:100000000202CFC2A6120419C2A7220204D3E5102D
:100010006401707030006DE5097069E50F90054A64
:100020009375F007A4FFE50F900549937C002FFF1F
:10003000EC35F0CF24FFF50DEF34FFF50CFE74DB4B
:10004000250DF58274063EF583E493F50B74F725D0
:100050000DF58274063EF583E493F50EE50F9005E9
:100060004B93F5087403250FF50FC3E50C648094DA
:1000700080500EE4F50FF51175120175100212048F
:10008000E41204BDE5106402707030006DE5097083
:1000900069E50F9005B09375F007A4FFE50F900593
:1000A000AF937C002FFFEC35F0CF24FFF50DEF343C
:1000B000FFF50CFE74DB250DF58274063EF583E436
:1000C00093F50B74F7250DF58274063EF583E493E2
:1000D000F50EE50F9005B193F5087403250FF50FA4
:1000E000C3E50C64809480500EE4F50FF511751291
:1000F000017510031204E41204BDE510640370706E
:1001000030006DE5097069E50F90062B9375F007D7
:10011000A4FFE50F90062A937C002FFFEC35F0CF6B
:1001200024FFF50DEF34FFF50CFE74DB250DF58291
:1001300074063EF583E493F50B74F7250DF5827490
:10014000063EF583E493F50EE50F90062C93F50833
:100150007403250FF50FC3E50C64809480500EE402
:10016000F50FF5117512017510011204E41204BDAA
:10017000E50964017064300061E50F9005419375F5
:10018000F007A4FFE50F900540937C002FFFEC35AE
:10019000F0CF24FFF50DEF34FFF50CFE74DB250DD9
:1001A000F58274063EF583E493F50B74F7250DF59F
:1001B0008274063EF583E493F50EE50F90054293B5
:1001C000F5087403250FF50FC3E50C648094805087
:1001D00006E4F50F1204E41204BD22120494D2AF17
:1001E000D2A9D2AB7589117511007512017A047903
:1001F000ED1203A37BFF7A0479FD7D02E4FF120375
:10020000A912000E1204AD1204CA20B350120470D9
:1002100020B34AE4F511F512F5097BFF7A05790E52
:100220007D01FF1203A97F057E001204741204AD44
:10023000050AE510701CF511F5127BFF7A05791F90
:100240007D01FF1203A9E4F509751001F50FD20035
:1002500080031204E420B3052000FA80F820B22ABB
:1002600012047020B2067511007512017A057930FA
:100270001203A3E4F50F750901D200050A20B20AA2
:100280002000FAE4F511F51280F330B40302020104
:10029000E510700302020112047030B4030202017F
:1002A000E5107003020201D2A0050A0510C3E51093
:1002B0009404748094804003751001E4F50FE510F8
:1002C00070037510057FF47E011204740202017838
:1002D0007FE4F6D8FD7581200203160201DBE4936A
:1002E000A3F8E493A34003F68001F208DFF4802929
:1002F000E493A3F85407240CC8C333C4540F442018
:10030000C8834004F456800146F6DFE4800B010206
:100310000408102040809004E9E47E019360BCA3AF
:10032000FF543F30E509541FFEE493A360010ECF54
:1003300054C025E060A840B8E493A3FAE493A3F87E
:10034000E493A3C8C582C8CAC583CAF0A3C8C5823E
:10035000C8CAC583CADFE9DEE780BE8F13E4F5149F
:10036000E514C395135039E4F518F517F516F5158E
:10037000E47F407E1FFDFCAB18AA17A916A815C381
:1003800012045F5017E5182401F518E43517F51726
:10039000E43516F516E43515F51580D4051480C03E
:1003A000C28C227BFF7D01E4FF8B138A148915ED3B
:1003B00064017007EF2480F5168005EF24C0F51660
:1003C000AF16120003AB13AA14A91512044660134A
:1003D0000515E5157002051414F9120446FF120400
:1003E000DC80E222AE07ED75F00A84F513ED75F0BE
:1003F0000A84A9F0EB64017005EE24808008EB64A8
:10040000027007EE24C0FF120003E5132430FF1230
:1004100004DCE92430FF0204DC8F807F057E0012BB
:100420000428D2A77F057E00D3EF9400EE9400400D
:10043000147D6E7C00ED1D70011CED4C70F7EF1FFC
:1004400070E61E80E322BB010689828A83E0225087
:1004500002E722BBFE02E32289828A83E49322EB35
:100460009FF5F0EA9E42F0E99D42F0E89C45F022BB
:100470007F017E00E4FDFCC3ED9FEC9E5015E4FB84
:10048000FA0BBB00010AEB647B4A70F50DBD00015D
:100490000C80E4227F381200037F0C1200037F06D9
:1004A0001200037F011200037F80020003E5124562
:1004B0001170097B01AD107F0B1203E422850B8CB8
:1004C000850E8AD28CAF0802035B7B02AD0A7F0DDA
:1004D0000203E4B2A0850B8C850E8A32D2A61204E8
:1004E00019C2A722B200D2A022010F000020576536
:1004F0006C636F6D6520746F2055736500205072BA
:1005000065737320636F756E743A3030200020205D
:10051000536F6E67206E756D3A20202020200020DA
:1005200020536F6E67206E756D3A303120202000A9
:1005300020446F6F722062656C6C206D6F64650083
:100540000303010103010000000602030502010389
:10055000020205020201030206020105020106026F
:10056000040302020502010602010502020302025F
:100570000102010601010502010302010202040257
:100580000203030201050202050201060201030241
:100590000202020201020405020303020102020137
:1005A000010201060101010201050106000000032C
:1005B000020203020104020103020202020101021B
:1005C0000102020205020202020202020301020209
:1005D00001020102020101020207010106010107F5
:1005E00001020302020701020701030601020202DF
:1005F00001030201020201010201060102050102DA
:1006000002020103020102020101020106010206C7
:1006100001020202010302010202010102010601BC
:1006200001070101010206000000050102030103A8
:100630000501010102030601020102020501040590
:100640000102010101020101030102020101010194
:100650000102010405010203010105010101020279
:10066000070101060102010202050104050102025F
:100670000101030101040102070001010104060157
:100680000201020201020407010206010107010141
:100690000102040601010701010102010601010630
:1006A0000101050101030101010101020108050128
:1006B0000203010105010101020207010106010215
:1006C0000102020501040501020201010301010406
:1006D0000102070002010104000000F2F3F5F5F643
:1006E000F7F8F9F9FAFAFBFBFCFCFCFDFDFDFDFE59
:1006F000FEFEFEFEFEFEFF42C117B6D0D1B621E1DE
:100700008CD868E95B8FEE446BB4F42D4777A2B6C2
:03071000DAFA16FC
:00000001FF
