:100000000202C8C2A6120412C2A7220204CCE51240
:100010006401707030006DE50B7069E51190054367
:100020009375F007A4FFE511900542937C002FFF24
:10003000EC35F0CF24FFF50FEF34FFF50EFE74D44E
:10004000250FF58274063EF583E493F50D74F025D3
:100050000FF58274063EF583E493F510E5119005E3
:100060004493F50A74032511F511C3E50E648094D9
:1000700080500EE4F511F50875090175120212049D
:10008000DD1204B6E5126402707030006DE50B708D
:1000900069E5119005A99375F007A4FFE511900596
:1000A000A8937C002FFFEC35F0CF24FFF50FEF3441
:1000B000FFF50EFE74D4250FF58274063EF583E439
:1000C00093F50D74F0250FF58274063EF583E493E5
:1000D000F510E5119005AA93F50A74032511F511A1
:1000E000C3E50E64809480500EE4F511F50875099F
:1000F000017512031204DD1204B6E5126403707078
:1001000030006DE50B7069E5119006249375F007DA
:10011000A4FFE511900623937C002FFFEC35F0CF70
:1001200024FFF50FEF34FFF50EFE74D4250FF58292
:1001300074063EF583E493F50D74F0250FF5827493
:10014000063EF583E493F510E51190062593F50A34
:1001500074032511F511C3E50E64809480500EE4FC
:10016000F511F5087509017512011204DD1204B6C6
:10017000E50B64017064300061E51190053A9375F8
:10018000F007A4FFE511900539937C002FFFEC35B3
:10019000F0CF24FFF50FEF34FFF50EFE74D4250FDA
:1001A000F58274063EF583E493F50D74F0250FF5A2
:1001B0008274063EF583E493F510E51190053B93B8
:1001C000F50A74032511F511C3E50E64809480507F
:1001D00006E4F5111204DD1204B62212048DD2AF2A
:1001E000D2A9D2AB7589117508007509017A047915
:1001F000E612039C7BFF7A0479F67D02E4FF12038A
:10020000A212000E1204A61204C320B350120469F5
:1002100020B34AE4F508F509F50B7BFF7A05790769
:100220007D01FF1203A27F057E0012046D1204A659
:10023000050CE512701CF508F5097BFF7A057918A5
:100240007D01FF1203A2E4F50B751201F511D20036
:1002500080031204DD20B3052000FA80F820B22AC2
:1002600012046920B2067508007509017A0579291A
:1002700012039CE4F511750B01D200050C20B20AA3
:100280002000FAE4F508F50980F330B40302020116
:10029000E512700302020112046930B40302020184
:1002A000E5127003020201D2A0050C0512C3E5128B
:1002B0009404748094804003751201E4F5117FF476
:1002C0007E0112046D020201787FE4F6D8FD75818B
:1002D0002002030F0201DBE493A3F8E493A340039D
:1002E000F68001F208DFF48029E493A3F854072490
:1002F0000CC8C333C4540F4420C8834004F4568050
:100300000146F6DFE4800B010204081020408090D3
:1003100004E2E47E019360BCA3FF543F30E509543E
:100320001FFEE493A360010ECF54C025E060A840F7
:10033000B8E493A3FAE493A3F8E493A3C8C582C8EE
:10034000CAC583CAF0A3C8C582C8CAC583CADFE9C3
:10035000DEE780BE8F13E4F514E514C3951350391E
:10036000E4F518F517F516F515E47F647E19FDFC24
:10037000AB18AA17A916A815C31204585017E518E8
:100380002401F518E43517F517E43516F516E435AC
:1003900015F51580D4051480C0C28C227BFF7D0129
:1003A000E4FF8B138A148915ED64017007EF248034
:1003B000F5168005EF24C0F516AF16120003AB1337
:1003C000AA14A91512043F60130515E5157002055E
:1003D0001414F912043FFF1204D580E222AE07ED97
:1003E00075F00A84F513ED75F00A84A9F0EB640149
:1003F0007005EE24808008EB64027007EE24C0FFD5
:10040000120003E5132430FF1204D5E92430FF0263
:1004100004D58F807F057E00120421D2A77F057E40
:1004200000D3EF9400EE940040147D6E7C00ED1D2F
:1004300070011CED4C70F7EF1F70E61E80E322BBCD
:10044000010689828A83E0225002E722BBFE02E392
:100450002289828A83E49322EB9FF5F0EA9E42F0A0
:10046000E99D42F0E89C45F0227F017E00E4FDFC1E
:10047000C3ED9FEC9E5015E4FBFA0BBB00010AEBA9
:10048000647B4A70F50DBD00010C80E4227F3812B8
:1004900000037F0C1200037F061200037F0112008D
:1004A000037F80020003E509450870097B01AD1256
:1004B0007F0B1203DD22850D8C85108AD28CAF0A4A
:1004C0000203547B02AD0C7F0D0203DDB2A0850D4B
:1004D0008C85108A32D2A6120412C2A722B200D290
:1004E000A022011100002057656C636F6D652074B8
:1004F0006F205573650020507265737320636F75AC
:100500006E743A303020002020536F6E67206E7575
:100510006D3A2020202020002020536F6E67206E2F
:10052000756D3A30312020200020446F6F722062B8
:10053000656C6C206D6F64650003030101030200AC
:100540000000060203050201030202050202010384
:10055000020602010502010602040302020502016D
:100560000602010502020302020102010601010561
:100570000201030201020204020203030201050256
:100580000205020106020103020202020201020444
:100590000502030302010202010102010601010139
:1005A0000201050106000000030202030201040229
:1005B000010302020202010102010202020502021B
:1005C000020202020203010202010201020201010F
:1005D00002020701010601010701020302020701ED
:1005E00002070103060102020201030201020201E5
:1005F00001020106010205010202020103020102D9
:1006000002010102010601020601020202010302C7
:1006100001020201010201060101070101010206B6
:1006200000000005010203010305010101020306A8
:10063000010201020205010405010201010102019A
:10064000010301020201010101010201040501028D
:100650000301010501010102020701010601020176
:100660000202050104050102020101030101040166
:100670000207000101010406010201020201020455
:100680000701020601010701010102040601010739
:100690000101010201060101060101050101030139
:1006A0000101010102010805010203010105010127
:1006B000010202070101060102010202050104050F
:1006C000010202010103010104010207000201010C
:1006D00004000000F2F3F5F5F6F7F8F9F9FAFAFB81
:1006E000FBFCFCFCFDFDFDFDFEFEFEFEFEFEFEFF36
:1006F00042C117B6D0D1B621E18CD868E95B8FEE44
:0C070000446BB4F42D4777A2B6DAFA1669
:00000001FF
