:10000000020295C2A61203DFC2A722020499E50FDD
:1000100064017067300064E50E9004FF9375F0078B
:10002000A4FFE50E9004FE937C002FFFEC35F0CF8B
:1000300024FFF50CEF34FFF50BFE7490250CF582D0
:1000400074063EF583E493F50A74AC250CF58274CE
:10005000063EF583E493F50DE50E90050093F50853
:100060007403250EF50EC3E50B648094805009E4FB
:10007000F50E750F021204AA120483E50F640270D4
:1000800067300064E50E9005659375F007A4FFE501
:100090000E900564937C002FFFEC35F0CF24FFF524
:1000A0000CEF34FFF50BFE7490250CF58274063EC0
:1000B000F583E493F50A74AC250CF58274063EF5DD
:1000C00083E493F50DE50E90056693F5087403251A
:1000D0000EF50EC3E50B648094805009E4F50E75AF
:1000E0000F031204AA120483E50F64037067300043
:1000F00064E50E9005E09375F007A4FFE50E90050A
:10010000DF937C002FFFEC35F0CF24FFF50CEF34AC
:10011000FFF50BFE7490250CF58274063EF583E422
:1001200093F50A74AC250CF58274063EF583E493CE
:10013000F50DE50E9005E193F5087403250EF50E17
:10014000C3E50B648094805009E4F50E750F04122A
:1001500004AA120483E50FFD7C006404706D300076
:100160006AE50E9004F69375F007A4FFE50E90047F
:10017000F5937A002FFFEA35F0CF24FFF50CEF342A
:10018000FFF50BFE7490250CF58274063EF583E4B2
:1001900093F50A74AC250CF58274063EF583E4935E
:1001A000F50DE50E9004F793F5087403250EF50E92
:1001B000C3E50B64809480500FE4F50EED64047089
:1001C00004F50F80031204AA1204832212045AD2E7
:1001D000AFD2A9D2AB7589117510007511017A04DF
:1001E00079B31203697BFF7A0479C37D02E4FF12BD
:1001F000036F12000E12047312049020B331120424
:100200003620B32BE50F701CF510F5117BFF7A0437
:1002100079D47D01FF12036F0509750F01E4F50E16
:10022000D20080031204AA20B3052000FA80F8202F
:10023000B22A12043620B2067510007511017A0434
:1002400079E5120369E4F50E750F04D20005092063
:10025000B20A2000FAE4F510F51180F320B493E51A
:100260000F608F12043620B489E50F6085D2A00597
:1002700009050FC3E50F9404748094804003750F43
:1002800001E4F50EE50F7003750F057FF47E011292
:10029000043A0201F2787FE4F6D8FD75812002026B
:1002A000DC0201CCE493A3F8E493A34003F68001BD
:1002B000F208DFF48029E493A3F85407240CC8C3A0
:1002C00033C4540F4420C8834004F456800146F6DA
:1002D000DFE4800B01020408102040809004AFE4AA
:1002E0007E019360BCA3FF543F30E509541FFEE438
:1002F00093A360010ECF54C025E060A840B8E493FA
:10030000A3FAE493A3F8E493A3C8C582C8CAC5833B
:10031000CAF0A3C8C582C8CAC583CADFE9DEE780C0
:10032000BE8F12E4F513E513C395125039E4F517A7
:10033000F516F515F514E47F407E1FFDFCAB17AAFA
:1003400016A915A814C31204255017E5172401F5A2
:1003500017E43516F516E43515F515E43514F514DE
:1003600080D4051380C0C28C227BFF7D01E4FF8B0B
:10037000128A138914ED64017007EF2480F515804B
:1003800005EF24C0F515AF15120003AB12AA13A98F
:100390001412040C60130514E5147002051314F90B
:1003A00012040CFF1204A280E222AE07ED75F00ADF
:1003B00084F512ED75F00A84A9F0EB64017005EE86
:1003C00024808008EB64027007EE24C0FF12000353
:1003D000E5122430FF1204A2E92430FF0204A28FA8
:1003E000807F057E001203EED2A77F057E00D3EF4B
:1003F0009400EE940040147D6E7C00ED1D70011C95
:10040000ED4C70F7EF1F70E61E80E322BB010689FA
:10041000828A83E0225002E722BBFE02E322898225
:100420008A83E49322EB9FF5F0EA9E42F0E99D4235
:10043000F0E89C45F0227F057E00E4FDFCC3ED9FC3
:10044000EC9E5015E4FBFA0BBB00010AEB647B4AFF
:1004500070F50DBD00010C80E4227F381200037F8F
:100460000C1200037F061200037F011200037F803D
:10047000020003E511451070097B01AD0F7F0B12DF
:1004800003AA22850A8C850D8AD28CAF080203212B
:100490007B02AD097F0D0203AAB2A0850A8C850DEF
:1004A0008A32D2A61203DFC2A722B200D2A0220152
:1004B0000E00002057656C636F6D6520746F2055CA
:1004C00073650020507265737320636F756E743AA4
:1004D000303020002020536F6E67206E756D3A30EB
:1004E000202020200020446F6F722062656C6C20F9
:1004F0006D6F646500030301010301000000060243
:1005000003050201030202050202010302060201C1
:1005100005020106020403020205020106020105AA
:1005200002020302020102010601010502010302A7
:100530000102020402020303020105020205020194
:100540000602010302020202020102040502030381
:10055000020102020101020106010101020105017D
:10056000060000000302020302010402010302026A
:10057000020201010201020202050202020202025B
:10058000020301020201020102020101020207014B
:10059000010601010701020302020701020701032C
:1005A0000601020202010302010202010102010628
:1005B000010205010202020103020102020101021D
:1005C0000106010206010202020103020102020108
:1005D00001020106010107010101020600000005F8
:1005E00001020301030501010102030601020102E8
:1005F00002050104050102010101020101030102DA
:1006000002010101010102010405010203010105CA
:1006100001010102020701010601020102020501B6
:1006200004050102020101030101040102070001A6
:10063000010104060102010202010204070102068F
:100640000101070101010204060101070101010284
:10065000010601010601010501010301010101017A
:10066000020108050102030101050101010202075F
:100670000101060102010202050104050102020155
:10068000010301010401020700020101040000004E
:10069000F2F3F5F5F6F7F8F9F9FAFAFBFBFCFCFCD6
:1006A000FDFDFDFDFEFEFEFEFEFEFEFF42C117B695
:1006B000D0D1B621E18CD868E95B8FEE446BB4F4FD
:0806C0002D4777A2B6DAFA1605
:00000001FF
